{
  "_format": "hh-sol-artifact-1",
  "contractName": "MyERC404",
  "sourceName": "contracts/MyERC404.sol",
  "abi": [
    {
      "inputs": [
        {
          "internalType": "address",
          "name": "_owner",
          "type": "address"
        }
      ],
      "stateMutability": "nonpayable",
      "type": "constructor"
    },
    {
      "inputs": [],
      "name": "AlreadyExists",
      "type": "error"
    },
    {
      "inputs": [],
      "name": "InvalidOwner",
      "type": "error"
    },
    {
      "inputs": [],
      "name": "InvalidRecipient",
      "type": "error"
    },
    {
      "inputs": [],
      "name": "InvalidSender",
      "type": "error"
    },
    {
      "inputs": [],
      "name": "NotFound",
      "type": "error"
    },
    {
      "inputs": [],
      "name": "Unauthorized",
      "type": "error"
    },
    {
      "inputs": [],
      "name": "UnsafeRecipient",
      "type": "error"
    },
    {
      "anonymous": false,
      "inputs": [
        {
          "indexed": true,
          "internalType": "address",
          "name": "owner",
          "type": "address"
        },
        {
          "indexed": true,
          "internalType": "address",
          "name": "spender",
          "type": "address"
        },
        {
          "indexed": false,
          "internalType": "uint256",
          "name": "amount",
          "type": "uint256"
        }
      ],
      "name": "Approval",
      "type": "event"
    },
    {
      "anonymous": false,
      "inputs": [
        {
          "indexed": true,
          "internalType": "address",
          "name": "owner",
          "type": "address"
        },
        {
          "indexed": true,
          "internalType": "address",
          "name": "operator",
          "type": "address"
        },
        {
          "indexed": false,
          "internalType": "bool",
          "name": "approved",
          "type": "bool"
        }
      ],
      "name": "ApprovalForAll",
      "type": "event"
    },
    {
      "anonymous": false,
      "inputs": [
        {
          "indexed": true,
          "internalType": "address",
          "name": "from",
          "type": "address"
        },
        {
          "indexed": true,
          "internalType": "address",
          "name": "to",
          "type": "address"
        },
        {
          "indexed": false,
          "internalType": "uint256",
          "name": "amount",
          "type": "uint256"
        }
      ],
      "name": "ERC20Transfer",
      "type": "event"
    },
    {
      "anonymous": false,
      "inputs": [
        {
          "indexed": true,
          "internalType": "address",
          "name": "owner",
          "type": "address"
        },
        {
          "indexed": true,
          "internalType": "address",
          "name": "spender",
          "type": "address"
        },
        {
          "indexed": true,
          "internalType": "uint256",
          "name": "id",
          "type": "uint256"
        }
      ],
      "name": "ERC721Approval",
      "type": "event"
    },
    {
      "anonymous": false,
      "inputs": [
        {
          "indexed": true,
          "internalType": "address",
          "name": "user",
          "type": "address"
        },
        {
          "indexed": true,
          "internalType": "address",
          "name": "newOwner",
          "type": "address"
        }
      ],
      "name": "OwnershipTransferred",
      "type": "event"
    },
    {
      "anonymous": false,
      "inputs": [
        {
          "indexed": true,
          "internalType": "address",
          "name": "from",
          "type": "address"
        },
        {
          "indexed": true,
          "internalType": "address",
          "name": "to",
          "type": "address"
        },
        {
          "indexed": true,
          "internalType": "uint256",
          "name": "id",
          "type": "uint256"
        }
      ],
      "name": "Transfer",
      "type": "event"
    },
    {
      "inputs": [
        {
          "internalType": "address",
          "name": "",
          "type": "address"
        },
        {
          "internalType": "address",
          "name": "",
          "type": "address"
        }
      ],
      "name": "allowance",
      "outputs": [
        {
          "internalType": "uint256",
          "name": "",
          "type": "uint256"
        }
      ],
      "stateMutability": "view",
      "type": "function"
    },
    {
      "inputs": [
        {
          "internalType": "address",
          "name": "spender",
          "type": "address"
        },
        {
          "internalType": "uint256",
          "name": "amountOrId",
          "type": "uint256"
        }
      ],
      "name": "approve",
      "outputs": [
        {
          "internalType": "bool",
          "name": "",
          "type": "bool"
        }
      ],
      "stateMutability": "nonpayable",
      "type": "function"
    },
    {
      "inputs": [
        {
          "internalType": "address",
          "name": "",
          "type": "address"
        }
      ],
      "name": "balanceOf",
      "outputs": [
        {
          "internalType": "uint256",
          "name": "",
          "type": "uint256"
        }
      ],
      "stateMutability": "view",
      "type": "function"
    },
    {
      "inputs": [],
      "name": "baseTokenURI",
      "outputs": [
        {
          "internalType": "string",
          "name": "",
          "type": "string"
        }
      ],
      "stateMutability": "view",
      "type": "function"
    },
    {
      "inputs": [],
      "name": "dataURI",
      "outputs": [
        {
          "internalType": "string",
          "name": "",
          "type": "string"
        }
      ],
      "stateMutability": "view",
      "type": "function"
    },
    {
      "inputs": [],
      "name": "decimals",
      "outputs": [
        {
          "internalType": "uint8",
          "name": "",
          "type": "uint8"
        }
      ],
      "stateMutability": "view",
      "type": "function"
    },
    {
      "inputs": [
        {
          "internalType": "uint256",
          "name": "",
          "type": "uint256"
        }
      ],
      "name": "getApproved",
      "outputs": [
        {
          "internalType": "address",
          "name": "",
          "type": "address"
        }
      ],
      "stateMutability": "view",
      "type": "function"
    },
    {
      "inputs": [
        {
          "internalType": "address",
          "name": "",
          "type": "address"
        },
        {
          "internalType": "address",
          "name": "",
          "type": "address"
        }
      ],
      "name": "isApprovedForAll",
      "outputs": [
        {
          "internalType": "bool",
          "name": "",
          "type": "bool"
        }
      ],
      "stateMutability": "view",
      "type": "function"
    },
    {
      "inputs": [],
      "name": "minted",
      "outputs": [
        {
          "internalType": "uint256",
          "name": "",
          "type": "uint256"
        }
      ],
      "stateMutability": "view",
      "type": "function"
    },
    {
      "inputs": [],
      "name": "name",
      "outputs": [
        {
          "internalType": "string",
          "name": "",
          "type": "string"
        }
      ],
      "stateMutability": "view",
      "type": "function"
    },
    {
      "inputs": [],
      "name": "owner",
      "outputs": [
        {
          "internalType": "address",
          "name": "",
          "type": "address"
        }
      ],
      "stateMutability": "view",
      "type": "function"
    },
    {
      "inputs": [
        {
          "internalType": "uint256",
          "name": "id",
          "type": "uint256"
        }
      ],
      "name": "ownerOf",
      "outputs": [
        {
          "internalType": "address",
          "name": "owner",
          "type": "address"
        }
      ],
      "stateMutability": "view",
      "type": "function"
    },
    {
      "inputs": [],
      "name": "revokeOwnership",
      "outputs": [],
      "stateMutability": "nonpayable",
      "type": "function"
    },
    {
      "inputs": [
        {
          "internalType": "address",
          "name": "from",
          "type": "address"
        },
        {
          "internalType": "address",
          "name": "to",
          "type": "address"
        },
        {
          "internalType": "uint256",
          "name": "id",
          "type": "uint256"
        }
      ],
      "name": "safeTransferFrom",
      "outputs": [],
      "stateMutability": "nonpayable",
      "type": "function"
    },
    {
      "inputs": [
        {
          "internalType": "address",
          "name": "from",
          "type": "address"
        },
        {
          "internalType": "address",
          "name": "to",
          "type": "address"
        },
        {
          "internalType": "uint256",
          "name": "id",
          "type": "uint256"
        },
        {
          "internalType": "bytes",
          "name": "data",
          "type": "bytes"
        }
      ],
      "name": "safeTransferFrom",
      "outputs": [],
      "stateMutability": "nonpayable",
      "type": "function"
    },
    {
      "inputs": [
        {
          "internalType": "address",
          "name": "operator",
          "type": "address"
        },
        {
          "internalType": "bool",
          "name": "approved",
          "type": "bool"
        }
      ],
      "name": "setApprovalForAll",
      "outputs": [],
      "stateMutability": "nonpayable",
      "type": "function"
    },
    {
      "inputs": [
        {
          "internalType": "string",
          "name": "_dataURI",
          "type": "string"
        }
      ],
      "name": "setDataURI",
      "outputs": [],
      "stateMutability": "nonpayable",
      "type": "function"
    },
    {
      "inputs": [
        {
          "internalType": "string",
          "name": "_name",
          "type": "string"
        },
        {
          "internalType": "string",
          "name": "_symbol",
          "type": "string"
        }
      ],
      "name": "setNameSymbol",
      "outputs": [],
      "stateMutability": "nonpayable",
      "type": "function"
    },
    {
      "inputs": [
        {
          "internalType": "string",
          "name": "_tokenURI",
          "type": "string"
        }
      ],
      "name": "setTokenURI",
      "outputs": [],
      "stateMutability": "nonpayable",
      "type": "function"
    },
    {
      "inputs": [
        {
          "internalType": "address",
          "name": "target",
          "type": "address"
        },
        {
          "internalType": "bool",
          "name": "state",
          "type": "bool"
        }
      ],
      "name": "setWhitelist",
      "outputs": [],
      "stateMutability": "nonpayable",
      "type": "function"
    },
    {
      "inputs": [],
      "name": "symbol",
      "outputs": [
        {
          "internalType": "string",
          "name": "",
          "type": "string"
        }
      ],
      "stateMutability": "view",
      "type": "function"
    },
    {
      "inputs": [
        {
          "internalType": "uint256",
          "name": "id",
          "type": "uint256"
        }
      ],
      "name": "tokenURI",
      "outputs": [
        {
          "internalType": "string",
          "name": "",
          "type": "string"
        }
      ],
      "stateMutability": "view",
      "type": "function"
    },
    {
      "inputs": [],
      "name": "totalSupply",
      "outputs": [
        {
          "internalType": "uint256",
          "name": "",
          "type": "uint256"
        }
      ],
      "stateMutability": "view",
      "type": "function"
    },
    {
      "inputs": [
        {
          "internalType": "address",
          "name": "to",
          "type": "address"
        },
        {
          "internalType": "uint256",
          "name": "amount",
          "type": "uint256"
        }
      ],
      "name": "transfer",
      "outputs": [
        {
          "internalType": "bool",
          "name": "",
          "type": "bool"
        }
      ],
      "stateMutability": "nonpayable",
      "type": "function"
    },
    {
      "inputs": [
        {
          "internalType": "address",
          "name": "from",
          "type": "address"
        },
        {
          "internalType": "address",
          "name": "to",
          "type": "address"
        },
        {
          "internalType": "uint256",
          "name": "amountOrId",
          "type": "uint256"
        }
      ],
      "name": "transferFrom",
      "outputs": [],
      "stateMutability": "nonpayable",
      "type": "function"
    },
    {
      "inputs": [
        {
          "internalType": "address",
          "name": "_owner",
          "type": "address"
        }
      ],
      "name": "transferOwnership",
      "outputs": [],
      "stateMutability": "nonpayable",
      "type": "function"
    },
    {
      "inputs": [
        {
          "internalType": "address",
          "name": "",
          "type": "address"
        }
      ],
      "name": "whitelist",
      "outputs": [
        {
          "internalType": "bool",
          "name": "",
          "type": "bool"
        }
      ],
      "stateMutability": "view",
      "type": "function"
    }
  ],
  "bytecode": "0x60c06040523480156200001157600080fd5b5060405162004763380380620047638339818101604052810190620000379190620002c8565b6040518060400160405280600881526020017f4d794552433430340000000000000000000000000000000000000000000000008152506040518060400160405280600581526020017f4d4534303400000000000000000000000000000000000000000000000000000081525060126127108480600073ffffffffffffffffffffffffffffffffffffffff168173ffffffffffffffffffffffffffffffffffffffff160362000111576040517f49e27cff00000000000000000000000000000000000000000000000000000000815260040160405180910390fd5b806000806101000a81548173ffffffffffffffffffffffffffffffffffffffff021916908373ffffffffffffffffffffffffffffffffffffffff1602179055508073ffffffffffffffffffffffffffffffffffffffff16600073ffffffffffffffffffffffffffffffffffffffff167f8be0079c531659141344cd1fd0a4f28419497f9722a3daafe3b4186f6b6457e060405160405180910390a3508460019081620001be919062000574565b508360029081620001d0919062000574565b508260ff1660808160ff1681525050608051600a620001f09190620007eb565b82620001fd91906200083c565b60a08181525050505050505069021e19e0c9bab2400000600460008373ffffffffffffffffffffffffffffffffffffffff1673ffffffffffffffffffffffffffffffffffffffff168152602001908152602001600020819055505062000887565b600080fd5b600073ffffffffffffffffffffffffffffffffffffffff82169050919050565b6000620002908262000263565b9050919050565b620002a28162000283565b8114620002ae57600080fd5b50565b600081519050620002c28162000297565b92915050565b600060208284031215620002e157620002e06200025e565b5b6000620002f184828501620002b1565b91505092915050565b600081519050919050565b7f4e487b7100000000000000000000000000000000000000000000000000000000600052604160045260246000fd5b7f4e487b7100000000000000000000000000000000000000000000000000000000600052602260045260246000fd5b600060028204905060018216806200037c57607f821691505b60208210810362000392576200039162000334565b5b50919050565b60008190508160005260206000209050919050565b60006020601f8301049050919050565b600082821b905092915050565b600060088302620003fc7fffffffffffffffffffffffffffffffffffffffffffffffffffffffffffffffff82620003bd565b620004088683620003bd565b95508019841693508086168417925050509392505050565b6000819050919050565b6000819050919050565b6000620004556200044f620004498462000420565b6200042a565b62000420565b9050919050565b6000819050919050565b620004718362000434565b6200048962000480826200045c565b848454620003ca565b825550505050565b600090565b620004a062000491565b620004ad81848462000466565b505050565b5b81811015620004d557620004c960008262000496565b600181019050620004b3565b5050565b601f8211156200052457620004ee8162000398565b620004f984620003ad565b8101602085101562000509578190505b620005216200051885620003ad565b830182620004b2565b50505b505050565b600082821c905092915050565b6000620005496000198460080262000529565b1980831691505092915050565b600062000564838362000536565b9150826002028217905092915050565b6200057f82620002fa565b67ffffffffffffffff8111156200059b576200059a62000305565b5b620005a7825462000363565b620005b4828285620004d9565b600060209050601f831160018114620005ec5760008415620005d7578287015190505b620005e3858262000556565b86555062000653565b601f198416620005fc8662000398565b60005b828110156200062657848901518255600182019150602085019450602081019050620005ff565b8683101562000646578489015162000642601f89168262000536565b8355505b6001600288020188555050505b505050505050565b7f4e487b7100000000000000000000000000000000000000000000000000000000600052601160045260246000fd5b60008160011c9050919050565b6000808291508390505b6001851115620006e957808604811115620006c157620006c06200065b565b5b6001851615620006d15780820291505b8081029050620006e1856200068a565b9450620006a1565b94509492505050565b600082620007045760019050620007d7565b81620007145760009050620007d7565b81600181146200072d576002811462000738576200076e565b6001915050620007d7565b60ff8411156200074d576200074c6200065b565b5b8360020a9150848211156200076757620007666200065b565b5b50620007d7565b5060208310610133831016604e8410600b8410161715620007a85782820a905083811115620007a257620007a16200065b565b5b620007d7565b620007b7848484600162000697565b92509050818404811115620007d157620007d06200065b565b5b81810290505b9392505050565b600060ff82169050919050565b6000620007f88262000420565b91506200080583620007de565b9250620008347fffffffffffffffffffffffffffffffffffffffffffffffffffffffffffffffff8484620006f2565b905092915050565b6000620008498262000420565b9150620008568362000420565b9250828202620008668162000420565b9150828204841483151762000880576200087f6200065b565b5b5092915050565b60805160a051613eaf620008b46000396000610910015260008181611326015261223a0152613eaf6000f3fe608060405234801561001057600080fd5b50600436106101a95760003560e01c806370a08231116100f9578063c87b56dd11610097578063e0df5b6f11610071578063e0df5b6f146104ce578063e985e9c5146104ea578063f28ca1dd1461051a578063f2fde38b14610538576101a9565b8063c87b56dd14610450578063d547cfb714610480578063dd62ed3e1461049e576101a9565b80639b19251a116100d35780639b19251a146103b8578063a22cb465146103e8578063a9059cbb14610404578063b88d4fde14610434576101a9565b806370a082311461034c5780638da5cb5b1461037c57806395d89b411461039a576101a9565b80632b968958116101665780634f02c420116101405780634f02c420146102c6578063504334c2146102e457806353d6fd59146103005780636352211e1461031c576101a9565b80632b96895814610282578063313ce5671461028c57806342842e0e146102aa576101a9565b806306fdde03146101ae578063081812fc146101cc578063095ea7b3146101fc57806318160ddd1461022c57806318d217c31461024a57806323b872dd14610266575b600080fd5b6101b6610554565b6040516101c39190612e2a565b60405180910390f35b6101e660048036038101906101e19190612e96565b6105e2565b6040516101f39190612f04565b60405180910390f35b61021660048036038101906102119190612f4b565b610615565b6040516102239190612fa6565b60405180910390f35b61023461090e565b6040516102419190612fd0565b60405180910390f35b610264600480360381019061025f9190613120565b610932565b005b610280600480360381019061027b9190613169565b6109ca565b005b61028a611201565b005b610294611324565b6040516102a191906131d8565b60405180910390f35b6102c460048036038101906102bf9190613169565b611348565b005b6102ce61147b565b6040516102db9190612fd0565b60405180910390f35b6102fe60048036038101906102f991906131f3565b611481565b005b61031a60048036038101906103159190613297565b611514565b005b61033660048036038101906103319190612e96565b6115f4565b6040516103439190612f04565b60405180910390f35b610366600480360381019061036191906132d7565b611697565b6040516103739190612fd0565b60405180910390f35b6103846116af565b6040516103919190612f04565b60405180910390f35b6103a26116d3565b6040516103af9190612e2a565b60405180910390f35b6103d260048036038101906103cd91906132d7565b611761565b6040516103df9190612fa6565b60405180910390f35b61040260048036038101906103fd9190613297565b611781565b005b61041e60048036038101906104199190612f4b565b61187e565b60405161042b9190612fa6565b60405180910390f35b61044e60048036038101906104499190613364565b611893565b005b61046a60048036038101906104659190612e96565b6119cc565b6040516104779190612e2a565b60405180910390f35b610488611ea6565b6040516104959190612e2a565b60405180910390f35b6104b860048036038101906104b391906133ec565b611f34565b6040516104c59190612fd0565b60405180910390f35b6104e860048036038101906104e39190613120565b611f59565b005b61050460048036038101906104ff91906133ec565b611ff1565b6040516105119190612fa6565b60405180910390f35b610522612020565b60405161052f9190612e2a565b60405180910390f35b610552600480360381019061054d91906132d7565b6120ae565b005b600180546105619061345b565b80601f016020809104026020016040519081016040528092919081815260200182805461058d9061345b565b80156105da5780601f106105af576101008083540402835291602001916105da565b820191906000526020600020905b8154815290600101906020018083116105bd57829003601f168201915b505050505081565b60066020528060005260406000206000915054906101000a900473ffffffffffffffffffffffffffffffffffffffff1681565b600060035482111580156106295750600082115b1561081d5760006008600084815260200190815260200160002060009054906101000a900473ffffffffffffffffffffffffffffffffffffffff1690508073ffffffffffffffffffffffffffffffffffffffff163373ffffffffffffffffffffffffffffffffffffffff16141580156107295750600760008273ffffffffffffffffffffffffffffffffffffffff1673ffffffffffffffffffffffffffffffffffffffff16815260200190815260200160002060003373ffffffffffffffffffffffffffffffffffffffff1673ffffffffffffffffffffffffffffffffffffffff16815260200190815260200160002060009054906101000a900460ff16155b15610760576040517f82b4290000000000000000000000000000000000000000000000000000000000815260040160405180910390fd5b836006600085815260200190815260200160002060006101000a81548173ffffffffffffffffffffffffffffffffffffffff021916908373ffffffffffffffffffffffffffffffffffffffff1602179055508373ffffffffffffffffffffffffffffffffffffffff168173ffffffffffffffffffffffffffffffffffffffff167f8c5be1e5ebec7d5bd14f71427d1e84f3dd0314c0f7b2291e5b200ac8c7c3b9258560405161080f9190612fd0565b60405180910390a350610904565b81600560003373ffffffffffffffffffffffffffffffffffffffff1673ffffffffffffffffffffffffffffffffffffffff16815260200190815260200160002060008573ffffffffffffffffffffffffffffffffffffffff1673ffffffffffffffffffffffffffffffffffffffff168152602001908152602001600020819055508273ffffffffffffffffffffffffffffffffffffffff163373ffffffffffffffffffffffffffffffffffffffff167f8c5be1e5ebec7d5bd14f71427d1e84f3dd0314c0f7b2291e5b200ac8c7c3b925846040516108fb9190612fd0565b60405180910390a35b6001905092915050565b7f000000000000000000000000000000000000000000000000000000000000000081565b60008054906101000a900473ffffffffffffffffffffffffffffffffffffffff1673ffffffffffffffffffffffffffffffffffffffff163373ffffffffffffffffffffffffffffffffffffffff16146109b7576040517f82b4290000000000000000000000000000000000000000000000000000000000815260040160405180910390fd5b80600d90816109c69190613638565b5050565b60035481116110b9576008600082815260200190815260200160002060009054906101000a900473ffffffffffffffffffffffffffffffffffffffff1673ffffffffffffffffffffffffffffffffffffffff168373ffffffffffffffffffffffffffffffffffffffff1614610a6b576040517fddb5de5e00000000000000000000000000000000000000000000000000000000815260040160405180910390fd5b600073ffffffffffffffffffffffffffffffffffffffff168273ffffffffffffffffffffffffffffffffffffffff1603610ad1576040517f9c8d2cd200000000000000000000000000000000000000000000000000000000815260040160405180910390fd5b8273ffffffffffffffffffffffffffffffffffffffff163373ffffffffffffffffffffffffffffffffffffffff1614158015610b945750600760008473ffffffffffffffffffffffffffffffffffffffff1673ffffffffffffffffffffffffffffffffffffffff16815260200190815260200160002060003373ffffffffffffffffffffffffffffffffffffffff1673ffffffffffffffffffffffffffffffffffffffff16815260200190815260200160002060009054906101000a900460ff16155b8015610bff57506006600082815260200190815260200160002060009054906101000a900473ffffffffffffffffffffffffffffffffffffffff1673ffffffffffffffffffffffffffffffffffffffff163373ffffffffffffffffffffffffffffffffffffffff1614155b15610c36576040517f82b4290000000000000000000000000000000000000000000000000000000000815260040160405180910390fd5b610c3e612236565b600460008573ffffffffffffffffffffffffffffffffffffffff1673ffffffffffffffffffffffffffffffffffffffff1681526020019081526020016000206000828254610c8c9190613739565b92505081905550610c9b612236565b600460008473ffffffffffffffffffffffffffffffffffffffff1673ffffffffffffffffffffffffffffffffffffffff16815260200190815260200160002060008282540192505081905550816008600083815260200190815260200160002060006101000a81548173ffffffffffffffffffffffffffffffffffffffff021916908373ffffffffffffffffffffffffffffffffffffffff1602179055506006600082815260200190815260200160002060006101000a81549073ffffffffffffffffffffffffffffffffffffffff02191690556000600960008573ffffffffffffffffffffffffffffffffffffffff1673ffffffffffffffffffffffffffffffffffffffff1681526020019081526020016000206001600960008773ffffffffffffffffffffffffffffffffffffffff1673ffffffffffffffffffffffffffffffffffffffff16815260200190815260200160002080549050610dff9190613739565b81548110610e1057610e0f61376d565b5b9060005260206000200154905080600960008673ffffffffffffffffffffffffffffffffffffffff1673ffffffffffffffffffffffffffffffffffffffff168152602001908152602001600020600a60008581526020019081526020016000205481548110610e8257610e8161376d565b5b9060005260206000200181905550600960008573ffffffffffffffffffffffffffffffffffffffff1673ffffffffffffffffffffffffffffffffffffffff168152602001908152602001600020805480610edf57610ede61379c565b5b60019003818190600052602060002001600090559055600a600083815260200190815260200160002054600a600083815260200190815260200160002081905550600960008473ffffffffffffffffffffffffffffffffffffffff1673ffffffffffffffffffffffffffffffffffffffff1681526020019081526020016000208290806001815401808255809150506001900390600052602060002001600090919091909150556001600960008573ffffffffffffffffffffffffffffffffffffffff1673ffffffffffffffffffffffffffffffffffffffff16815260200190815260200160002080549050610fd59190613739565b600a600084815260200190815260200160002081905550818373ffffffffffffffffffffffffffffffffffffffff168573ffffffffffffffffffffffffffffffffffffffff167fddf252ad1be2c89b69c2b068fc378daa952ba7f163c4a11628f55a4df523b3ef60405160405180910390a48273ffffffffffffffffffffffffffffffffffffffff168473ffffffffffffffffffffffffffffffffffffffff167fe59fdd36d0d223c0c7d996db7ad796880f45e1936cb0bb7ac102e7082e03148761109e612236565b6040516110ab9190612fd0565b60405180910390a3506111fc565b6000600560008573ffffffffffffffffffffffffffffffffffffffff1673ffffffffffffffffffffffffffffffffffffffff16815260200190815260200160002060003373ffffffffffffffffffffffffffffffffffffffff1673ffffffffffffffffffffffffffffffffffffffff1681526020019081526020016000205490507fffffffffffffffffffffffffffffffffffffffffffffffffffffffffffffffff81146111ee57818161116d9190613739565b600560008673ffffffffffffffffffffffffffffffffffffffff1673ffffffffffffffffffffffffffffffffffffffff16815260200190815260200160002060003373ffffffffffffffffffffffffffffffffffffffff1673ffffffffffffffffffffffffffffffffffffffff168152602001908152602001600020819055505b6111f984848461226a565b50505b505050565b60008054906101000a900473ffffffffffffffffffffffffffffffffffffffff1673ffffffffffffffffffffffffffffffffffffffff163373ffffffffffffffffffffffffffffffffffffffff1614611286576040517f82b4290000000000000000000000000000000000000000000000000000000000815260040160405180910390fd5b60008060006101000a81548173ffffffffffffffffffffffffffffffffffffffff021916908373ffffffffffffffffffffffffffffffffffffffff160217905550600073ffffffffffffffffffffffffffffffffffffffff163373ffffffffffffffffffffffffffffffffffffffff167f8be0079c531659141344cd1fd0a4f28419497f9722a3daafe3b4186f6b6457e060405160405180910390a3565b7f000000000000000000000000000000000000000000000000000000000000000081565b6113538383836109ca565b60008273ffffffffffffffffffffffffffffffffffffffff163b1415801561143f575063150b7a0260e01b7bffffffffffffffffffffffffffffffffffffffffffffffffffffffff19168273ffffffffffffffffffffffffffffffffffffffff1663150b7a023386856040518463ffffffff1660e01b81526004016113da93929190613802565b6020604051808303816000875af11580156113f9573d6000803e3d6000fd5b505050506040513d601f19601f8201168201806040525081019061141d91906138a4565b7bffffffffffffffffffffffffffffffffffffffffffffffffffffffff191614155b15611476576040517f3da6393100000000000000000000000000000000000000000000000000000000815260040160405180910390fd5b505050565b60035481565b60008054906101000a900473ffffffffffffffffffffffffffffffffffffffff1673ffffffffffffffffffffffffffffffffffffffff163373ffffffffffffffffffffffffffffffffffffffff1614611506576040517f82b4290000000000000000000000000000000000000000000000000000000000815260040160405180910390fd5b61151082826125f7565b5050565b60008054906101000a900473ffffffffffffffffffffffffffffffffffffffff1673ffffffffffffffffffffffffffffffffffffffff163373ffffffffffffffffffffffffffffffffffffffff1614611599576040517f82b4290000000000000000000000000000000000000000000000000000000000815260040160405180910390fd5b80600b60008473ffffffffffffffffffffffffffffffffffffffff1673ffffffffffffffffffffffffffffffffffffffff16815260200190815260200160002060006101000a81548160ff0219169083151502179055505050565b60006008600083815260200190815260200160002060009054906101000a900473ffffffffffffffffffffffffffffffffffffffff169050600073ffffffffffffffffffffffffffffffffffffffff168173ffffffffffffffffffffffffffffffffffffffff1603611692576040517fc5723b5100000000000000000000000000000000000000000000000000000000815260040160405180910390fd5b919050565b60046020528060005260406000206000915090505481565b60008054906101000a900473ffffffffffffffffffffffffffffffffffffffff1681565b600280546116e09061345b565b80601f016020809104026020016040519081016040528092919081815260200182805461170c9061345b565b80156117595780601f1061172e57610100808354040283529160200191611759565b820191906000526020600020905b81548152906001019060200180831161173c57829003601f168201915b505050505081565b600b6020528060005260406000206000915054906101000a900460ff1681565b80600760003373ffffffffffffffffffffffffffffffffffffffff1673ffffffffffffffffffffffffffffffffffffffff16815260200190815260200160002060008473ffffffffffffffffffffffffffffffffffffffff1673ffffffffffffffffffffffffffffffffffffffff16815260200190815260200160002060006101000a81548160ff0219169083151502179055508173ffffffffffffffffffffffffffffffffffffffff163373ffffffffffffffffffffffffffffffffffffffff167f17307eab39ab6107e8899845ad3d59bd9653f200f220920489ca2b5937696c31836040516118729190612fa6565b60405180910390a35050565b600061188b33848461226a565b905092915050565b61189e8585856109ca565b60008473ffffffffffffffffffffffffffffffffffffffff163b1415801561198e575063150b7a0260e01b7bffffffffffffffffffffffffffffffffffffffffffffffffffffffff19168473ffffffffffffffffffffffffffffffffffffffff1663150b7a0233888787876040518663ffffffff1660e01b81526004016119299594939291906138fe565b6020604051808303816000875af1158015611948573d6000803e3d6000fd5b505050506040513d601f19601f8201168201806040525081019061196c91906138a4565b7bffffffffffffffffffffffffffffffffffffffffffffffffffffffff191614155b156119c5576040517f3da6393100000000000000000000000000000000000000000000000000000000815260040160405180910390fd5b5050505050565b60606000600e80546119dd9061345b565b90501115611a1757600e6119f08361261b565b604051602001611a01929190613a0b565b6040516020818303038152906040529050611ea1565b600082604051602001611a2a9190613a50565b6040516020818303038152906040528051906020012060f81c905060608060648360ff1611611ac8576040518060400160405280600581526020017f312e706e6700000000000000000000000000000000000000000000000000000081525091506040518060400160405280600681526020017f507572706c6500000000000000000000000000000000000000000000000000008152509050611d4a565b60a08360ff1611611b48576040518060400160405280600581526020017f322e706e6700000000000000000000000000000000000000000000000000000081525091506040518060400160405280600381526020017f52656400000000000000000000000000000000000000000000000000000000008152509050611d49565b60d28360ff1611611bc8576040518060400160405280600581526020017f332e706e6700000000000000000000000000000000000000000000000000000081525091506040518060400160405280600581526020017f477265656e0000000000000000000000000000000000000000000000000000008152509050611d48565b60f08360ff1611611c48576040518060400160405280600581526020017f342e706e6700000000000000000000000000000000000000000000000000000081525091506040518060400160405280600481526020017f426c7565000000000000000000000000000000000000000000000000000000008152509050611d47565b60ff8360ff1611611cc8576040518060400160405280600581526020017f352e706e6700000000000000000000000000000000000000000000000000000081525091506040518060400160405280600681526020017f4f72616e676500000000000000000000000000000000000000000000000000008152509050611d46565b61012c8360ff1611611d45576040518060400160405280600581526020017f362e706e6700000000000000000000000000000000000000000000000000000081525091506040518060400160405280600881526020017f4c6176656e64657200000000000000000000000000000000000000000000000081525090505b5b5b5b5b5b6000611d558661261b565b604051602001611d659190613a91565b604051602081830303815290604052604051602001611d849190613b75565b604051602081830303815290604052600d84604051602001611da7929190613a0b565b604051602081830303815290604052604051602001611dc7929190613b97565b6040516020818303038152906040529050600082604051602001611deb9190613c2d565b604051602081830303815290604052905060006040518060400160405280600481526020017f227d5d7d0000000000000000000000000000000000000000000000000000000081525090508282604051602001611e49929190613b97565b60405160208183030381529060405281604051602001611e6a929190613b97565b604051602081830303815290604052604051602001611e899190613c75565b60405160208183030381529060405296505050505050505b919050565b600e8054611eb39061345b565b80601f0160208091040260200160405190810160405280929190818152602001828054611edf9061345b565b8015611f2c5780601f10611f0157610100808354040283529160200191611f2c565b820191906000526020600020905b815481529060010190602001808311611f0f57829003601f168201915b505050505081565b6005602052816000526040600020602052806000526040600020600091509150505481565b60008054906101000a900473ffffffffffffffffffffffffffffffffffffffff1673ffffffffffffffffffffffffffffffffffffffff163373ffffffffffffffffffffffffffffffffffffffff1614611fde576040517f82b4290000000000000000000000000000000000000000000000000000000000815260040160405180910390fd5b80600e9081611fed9190613638565b5050565b60076020528160005260406000206020528060005260406000206000915091509054906101000a900460ff1681565b600d805461202d9061345b565b80601f01602080910402602001604051908101604052809291908181526020018280546120599061345b565b80156120a65780601f1061207b576101008083540402835291602001916120a6565b820191906000526020600020905b81548152906001019060200180831161208957829003601f168201915b505050505081565b60008054906101000a900473ffffffffffffffffffffffffffffffffffffffff1673ffffffffffffffffffffffffffffffffffffffff163373ffffffffffffffffffffffffffffffffffffffff1614612133576040517f82b4290000000000000000000000000000000000000000000000000000000000815260040160405180910390fd5b600073ffffffffffffffffffffffffffffffffffffffff168173ffffffffffffffffffffffffffffffffffffffff1603612199576040517f49e27cff00000000000000000000000000000000000000000000000000000000815260040160405180910390fd5b806000806101000a81548173ffffffffffffffffffffffffffffffffffffffff021916908373ffffffffffffffffffffffffffffffffffffffff1602179055508073ffffffffffffffffffffffffffffffffffffffff163373ffffffffffffffffffffffffffffffffffffffff167f8be0079c531659141344cd1fd0a4f28419497f9722a3daafe3b4186f6b6457e060405160405180910390a350565b60007f0000000000000000000000000000000000000000000000000000000000000000600a6122659190613dce565b905090565b600080612275612236565b90506000600460008773ffffffffffffffffffffffffffffffffffffffff1673ffffffffffffffffffffffffffffffffffffffff1681526020019081526020016000205490506000600460008773ffffffffffffffffffffffffffffffffffffffff1673ffffffffffffffffffffffffffffffffffffffff16815260200190815260200160002054905084600460008973ffffffffffffffffffffffffffffffffffffffff1673ffffffffffffffffffffffffffffffffffffffff168152602001908152602001600020600082825461234e9190613739565b9250508190555084600460008873ffffffffffffffffffffffffffffffffffffffff1673ffffffffffffffffffffffffffffffffffffffff16815260200190815260200160002060008282540192505081905550600b60008873ffffffffffffffffffffffffffffffffffffffff1673ffffffffffffffffffffffffffffffffffffffff16815260200190815260200160002060009054906101000a900460ff166124aa57600083600460008a73ffffffffffffffffffffffffffffffffffffffff1673ffffffffffffffffffffffffffffffffffffffff168152602001908152602001600020546124409190613e48565b848461244c9190613e48565b6124569190613739565b905060005b818110156124a757600061246e8a6126e9565b9050600c81908060018154018082558091505060019003906000526020600020016000909190919091505550808060010191505061245b565b50505b600b60008773ffffffffffffffffffffffffffffffffffffffff1673ffffffffffffffffffffffffffffffffffffffff16815260200190815260200160002060009054906101000a900460ff1661258457600083826125099190613e48565b84600460008a73ffffffffffffffffffffffffffffffffffffffff1673ffffffffffffffffffffffffffffffffffffffff168152602001908152602001600020546125549190613e48565b61255e9190613739565b905060005b818110156125815761257488612945565b8080600101915050612563565b50505b8573ffffffffffffffffffffffffffffffffffffffff168773ffffffffffffffffffffffffffffffffffffffff167fe59fdd36d0d223c0c7d996db7ad796880f45e1936cb0bb7ac102e7082e031487876040516125e19190612fd0565b60405180910390a3600193505050509392505050565b81600190816126069190613638565b5080600290816126169190613638565b505050565b60606000600161262a84612c47565b01905060008167ffffffffffffffff81111561264957612648612ff5565b5b6040519080825280601f01601f19166020018201604052801561267b5781602001600182028036833780820191505090505b509050600082602001820190505b6001156126de578080600190039150507f3031323334353637383961626364656600000000000000000000000000000000600a86061a8153600a85816126d2576126d1613e19565b5b04945060008503612689575b819350505050919050565b60008073ffffffffffffffffffffffffffffffffffffffff168273ffffffffffffffffffffffffffffffffffffffff1603612750576040517fddb5de5e00000000000000000000000000000000000000000000000000000000815260040160405180910390fd5b600960008373ffffffffffffffffffffffffffffffffffffffff1673ffffffffffffffffffffffffffffffffffffffff1681526020019081526020016000206001600960008573ffffffffffffffffffffffffffffffffffffffff1673ffffffffffffffffffffffffffffffffffffffff168152602001908152602001600020805490506127de9190613739565b815481106127ef576127ee61376d565b5b90600052602060002001549050600960008373ffffffffffffffffffffffffffffffffffffffff1673ffffffffffffffffffffffffffffffffffffffff16815260200190815260200160002080548061284b5761284a61379c565b5b60019003818190600052602060002001600090559055600a6000828152602001908152602001600020600090556008600082815260200190815260200160002060006101000a81549073ffffffffffffffffffffffffffffffffffffffff02191690556006600082815260200190815260200160002060006101000a81549073ffffffffffffffffffffffffffffffffffffffff021916905580600073ffffffffffffffffffffffffffffffffffffffff168373ffffffffffffffffffffffffffffffffffffffff167fddf252ad1be2c89b69c2b068fc378daa952ba7f163c4a11628f55a4df523b3ef60405160405180910390a4919050565b600073ffffffffffffffffffffffffffffffffffffffff168173ffffffffffffffffffffffffffffffffffffffff16036129ab576040517f9c8d2cd200000000000000000000000000000000000000000000000000000000815260040160405180910390fd5b600080600c80549050036129d5576003600081548092919060010191905055506003549050612a30565b600c6001600c805490506129e99190613739565b815481106129fa576129f961376d565b5b90600052602060002001549050600c805480612a1957612a1861379c565b5b600190038181906000526020600020016000905590555b600073ffffffffffffffffffffffffffffffffffffffff166008600083815260200190815260200160002060009054906101000a900473ffffffffffffffffffffffffffffffffffffffff1673ffffffffffffffffffffffffffffffffffffffff1614612ac9576040517f23369fa600000000000000000000000000000000000000000000000000000000815260040160405180910390fd5b816008600083815260200190815260200160002060006101000a81548173ffffffffffffffffffffffffffffffffffffffff021916908373ffffffffffffffffffffffffffffffffffffffff160217905550600960008373ffffffffffffffffffffffffffffffffffffffff1673ffffffffffffffffffffffffffffffffffffffff1681526020019081526020016000208190806001815401808255809150506001900390600052602060002001600090919091909150556001600960008473ffffffffffffffffffffffffffffffffffffffff1673ffffffffffffffffffffffffffffffffffffffff16815260200190815260200160002080549050612bd09190613739565b600a600083815260200190815260200160002081905550808273ffffffffffffffffffffffffffffffffffffffff16600073ffffffffffffffffffffffffffffffffffffffff167fddf252ad1be2c89b69c2b068fc378daa952ba7f163c4a11628f55a4df523b3ef60405160405180910390a45050565b600080600090507a184f03e93ff9f4daa797ed6e38ed64bf6a1f0100000000000000008310612ca5577a184f03e93ff9f4daa797ed6e38ed64bf6a1f0100000000000000008381612c9b57612c9a613e19565b5b0492506040810190505b6d04ee2d6d415b85acef81000000008310612ce2576d04ee2d6d415b85acef81000000008381612cd857612cd7613e19565b5b0492506020810190505b662386f26fc100008310612d1157662386f26fc100008381612d0757612d06613e19565b5b0492506010810190505b6305f5e1008310612d3a576305f5e1008381612d3057612d2f613e19565b5b0492506008810190505b6127108310612d5f576127108381612d5557612d54613e19565b5b0492506004810190505b60648310612d825760648381612d7857612d77613e19565b5b0492506002810190505b600a8310612d91576001810190505b80915050919050565b600081519050919050565b600082825260208201905092915050565b60005b83811015612dd4578082015181840152602081019050612db9565b60008484015250505050565b6000601f19601f8301169050919050565b6000612dfc82612d9a565b612e068185612da5565b9350612e16818560208601612db6565b612e1f81612de0565b840191505092915050565b60006020820190508181036000830152612e448184612df1565b905092915050565b6000604051905090565b600080fd5b600080fd5b6000819050919050565b612e7381612e60565b8114612e7e57600080fd5b50565b600081359050612e9081612e6a565b92915050565b600060208284031215612eac57612eab612e56565b5b6000612eba84828501612e81565b91505092915050565b600073ffffffffffffffffffffffffffffffffffffffff82169050919050565b6000612eee82612ec3565b9050919050565b612efe81612ee3565b82525050565b6000602082019050612f196000830184612ef5565b92915050565b612f2881612ee3565b8114612f3357600080fd5b50565b600081359050612f4581612f1f565b92915050565b60008060408385031215612f6257612f61612e56565b5b6000612f7085828601612f36565b9250506020612f8185828601612e81565b9150509250929050565b60008115159050919050565b612fa081612f8b565b82525050565b6000602082019050612fbb6000830184612f97565b92915050565b612fca81612e60565b82525050565b6000602082019050612fe56000830184612fc1565b92915050565b600080fd5b600080fd5b7f4e487b7100000000000000000000000000000000000000000000000000000000600052604160045260246000fd5b61302d82612de0565b810181811067ffffffffffffffff8211171561304c5761304b612ff5565b5b80604052505050565b600061305f612e4c565b905061306b8282613024565b919050565b600067ffffffffffffffff82111561308b5761308a612ff5565b5b61309482612de0565b9050602081019050919050565b82818337600083830152505050565b60006130c36130be84613070565b613055565b9050828152602081018484840111156130df576130de612ff0565b5b6130ea8482856130a1565b509392505050565b600082601f83011261310757613106612feb565b5b81356131178482602086016130b0565b91505092915050565b60006020828403121561313657613135612e56565b5b600082013567ffffffffffffffff81111561315457613153612e5b565b5b613160848285016130f2565b91505092915050565b60008060006060848603121561318257613181612e56565b5b600061319086828701612f36565b93505060206131a186828701612f36565b92505060406131b286828701612e81565b9150509250925092565b600060ff82169050919050565b6131d2816131bc565b82525050565b60006020820190506131ed60008301846131c9565b92915050565b6000806040838503121561320a57613209612e56565b5b600083013567ffffffffffffffff81111561322857613227612e5b565b5b613234858286016130f2565b925050602083013567ffffffffffffffff81111561325557613254612e5b565b5b613261858286016130f2565b9150509250929050565b61327481612f8b565b811461327f57600080fd5b50565b6000813590506132918161326b565b92915050565b600080604083850312156132ae576132ad612e56565b5b60006132bc85828601612f36565b92505060206132cd85828601613282565b9150509250929050565b6000602082840312156132ed576132ec612e56565b5b60006132fb84828501612f36565b91505092915050565b600080fd5b600080fd5b60008083601f84011261332457613323612feb565b5b8235905067ffffffffffffffff81111561334157613340613304565b5b60208301915083600182028301111561335d5761335c613309565b5b9250929050565b6000806000806000608086880312156133805761337f612e56565b5b600061338e88828901612f36565b955050602061339f88828901612f36565b94505060406133b088828901612e81565b935050606086013567ffffffffffffffff8111156133d1576133d0612e5b565b5b6133dd8882890161330e565b92509250509295509295909350565b6000806040838503121561340357613402612e56565b5b600061341185828601612f36565b925050602061342285828601612f36565b9150509250929050565b7f4e487b7100000000000000000000000000000000000000000000000000000000600052602260045260246000fd5b6000600282049050600182168061347357607f821691505b6020821081036134865761348561342c565b5b50919050565b60008190508160005260206000209050919050565b60006020601f8301049050919050565b600082821b905092915050565b6000600883026134ee7fffffffffffffffffffffffffffffffffffffffffffffffffffffffffffffffff826134b1565b6134f886836134b1565b95508019841693508086168417925050509392505050565b6000819050919050565b600061353561353061352b84612e60565b613510565b612e60565b9050919050565b6000819050919050565b61354f8361351a565b61356361355b8261353c565b8484546134be565b825550505050565b600090565b61357861356b565b613583818484613546565b505050565b5b818110156135a75761359c600082613570565b600181019050613589565b5050565b601f8211156135ec576135bd8161348c565b6135c6846134a1565b810160208510156135d5578190505b6135e96135e1856134a1565b830182613588565b50505b505050565b600082821c905092915050565b600061360f600019846008026135f1565b1980831691505092915050565b600061362883836135fe565b9150826002028217905092915050565b61364182612d9a565b67ffffffffffffffff81111561365a57613659612ff5565b5b613664825461345b565b61366f8282856135ab565b600060209050601f8311600181146136a25760008415613690578287015190505b61369a858261361c565b865550613702565b601f1984166136b08661348c565b60005b828110156136d8578489015182556001820191506020850194506020810190506136b3565b868310156136f557848901516136f1601f8916826135fe565b8355505b6001600288020188555050505b505050505050565b7f4e487b7100000000000000000000000000000000000000000000000000000000600052601160045260246000fd5b600061374482612e60565b915061374f83612e60565b92508282039050818111156137675761376661370a565b5b92915050565b7f4e487b7100000000000000000000000000000000000000000000000000000000600052603260045260246000fd5b7f4e487b7100000000000000000000000000000000000000000000000000000000600052603160045260246000fd5b600082825260208201905092915050565b50565b60006137ec6000836137cb565b91506137f7826137dc565b600082019050919050565b60006080820190506138176000830186612ef5565b6138246020830185612ef5565b6138316040830184612fc1565b8181036060830152613842816137df565b9050949350505050565b60007fffffffff0000000000000000000000000000000000000000000000000000000082169050919050565b6138818161384c565b811461388c57600080fd5b50565b60008151905061389e81613878565b92915050565b6000602082840312156138ba576138b9612e56565b5b60006138c88482850161388f565b91505092915050565b60006138dd83856137cb565b93506138ea8385846130a1565b6138f383612de0565b840190509392505050565b60006080820190506139136000830188612ef5565b6139206020830187612ef5565b61392d6040830186612fc1565b81810360608301526139408184866138d1565b90509695505050505050565b600081905092915050565b600081546139648161345b565b61396e818661394c565b94506001821660008114613989576001811461399e576139d1565b60ff19831686528115158202860193506139d1565b6139a78561348c565b60005b838110156139c9578154818901526001820191506020810190506139aa565b838801955050505b50505092915050565b60006139e582612d9a565b6139ef818561394c565b93506139ff818560208601612db6565b80840191505092915050565b6000613a178285613957565b9150613a2382846139da565b91508190509392505050565b6000819050919050565b613a4a613a4582612e60565b613a2f565b82525050565b6000613a5c8284613a39565b60208201915081905092915050565b7f7b226e616d65223a20224d792045524334303420230000000000000000000000815250565b6000613a9c82613a6b565b601582019150613aac82846139da565b915081905092915050565b7f222c226465736372697074696f6e223a224120636f6c6c656374696f6e206f6660008201527f20636972636c657320656e61626c6564206279204552433430342c20616e206560208201527f78706572696d656e74616c20746f6b656e207374616e646172642e222c22657860408201527f7465726e616c5f75726c223a22222c22696d616765223a220000000000000000606082015250565b6000613b5f60788361394c565b9150613b6a82613ab7565b607882019050919050565b6000613b8182846139da565b9150613b8c82613b52565b915081905092915050565b6000613ba382856139da565b9150613baf82846139da565b91508190509392505050565b7f222c2261747472696275746573223a5b7b2274726169745f74797065223a224360008201527f6f6c6f72222c2276616c7565223a220000000000000000000000000000000000602082015250565b6000613c17602f8361394c565b9150613c2282613bbb565b602f82019050919050565b6000613c3882613c0a565b9150613c4482846139da565b915081905092915050565b7f646174613a6170706c69636174696f6e2f6a736f6e3b757466382c0000000000815250565b6000613c8082613c4f565b601b82019150613c9082846139da565b915081905092915050565b60008160011c9050919050565b6000808291508390505b6001851115613cf257808604811115613cce57613ccd61370a565b5b6001851615613cdd5780820291505b8081029050613ceb85613c9b565b9450613cb2565b94509492505050565b600082613d0b5760019050613dc7565b81613d195760009050613dc7565b8160018114613d2f5760028114613d3957613d68565b6001915050613dc7565b60ff841115613d4b57613d4a61370a565b5b8360020a915084821115613d6257613d6161370a565b5b50613dc7565b5060208310610133831016604e8410600b8410161715613d9d5782820a905083811115613d9857613d9761370a565b5b613dc7565b613daa8484846001613ca8565b92509050818404811115613dc157613dc061370a565b5b81810290505b9392505050565b6000613dd982612e60565b9150613de4836131bc565b9250613e117fffffffffffffffffffffffffffffffffffffffffffffffffffffffffffffffff8484613cfb565b905092915050565b7f4e487b7100000000000000000000000000000000000000000000000000000000600052601260045260246000fd5b6000613e5382612e60565b9150613e5e83612e60565b925082613e6e57613e6d613e19565b5b82820490509291505056fea2646970667358221220ed2eb01499cdfb763150a6f64d1956d78e7d318e271654bf3a721746473995de64736f6c63430008180033",
  "linkReferences": {},
  "deployedLinkReferences": {}
}